{
    "_format": "hh-sol-artifact-1",
    "contractName": "VillvayCerts",
    "sourceName": "contracts/VillvayCerts.sol",
    "abi": [
        {
            "inputs": [],
            "stateMutability": "nonpayable",
            "type": "constructor"
        },
        {
            "anonymous": false,
            "inputs": [
                {
                    "indexed": true,
                    "internalType": "address",
                    "name": "previousOwner",
                    "type": "address"
                },
                {
                    "indexed": true,
                    "internalType": "address",
                    "name": "newOwner",
                    "type": "address"
                }
            ],
            "name": "OwnershipTransferred",
            "type": "event"
        },
        {
            "inputs": [
                {
                    "internalType": "address",
                    "name": "student",
                    "type": "address"
                }
            ],
            "name": "getCertificateByStudent",
            "outputs": [
                {
                    "components": [
                        {
                            "internalType": "address",
                            "name": "studentAddress",
                            "type": "address"
                        },
                        {
                            "internalType": "string",
                            "name": "name",
                            "type": "string"
                        },
                        {
                            "internalType": "string",
                            "name": "qualification",
                            "type": "string"
                        },
                        {
                            "internalType": "string",
                            "name": "major",
                            "type": "string"
                        },
                        {
                            "internalType": "string",
                            "name": "ipfsHash",
                            "type": "string"
                        }
                    ],
                    "internalType": "struct VillvayCerts.Certificate",
                    "name": "",
                    "type": "tuple"
                }
            ],
            "stateMutability": "view",
            "type": "function"
        },
        {
            "inputs": [
                {
                    "internalType": "address",
                    "name": "student",
                    "type": "address"
                },
                {
                    "components": [
                        {
                            "internalType": "address",
                            "name": "studentAddress",
                            "type": "address"
                        },
                        {
                            "internalType": "string",
                            "name": "name",
                            "type": "string"
                        },
                        {
                            "internalType": "string",
                            "name": "qualification",
                            "type": "string"
                        },
                        {
                            "internalType": "string",
                            "name": "major",
                            "type": "string"
                        },
                        {
                            "internalType": "string",
                            "name": "ipfsHash",
                            "type": "string"
                        }
                    ],
                    "internalType": "struct VillvayCerts.Certificate",
                    "name": "details",
                    "type": "tuple"
                }
            ],
            "name": "grantCertificate",
            "outputs": [],
            "stateMutability": "nonpayable",
            "type": "function"
        },
        {
            "inputs": [],
            "name": "owner",
            "outputs": [
                {
                    "internalType": "address",
                    "name": "",
                    "type": "address"
                }
            ],
            "stateMutability": "view",
            "type": "function"
        },
        {
            "inputs": [],
            "name": "renounceOwnership",
            "outputs": [],
            "stateMutability": "nonpayable",
            "type": "function"
        },
        {
            "inputs": [
                {
                    "internalType": "address",
                    "name": "newOwner",
                    "type": "address"
                }
            ],
            "name": "transferOwnership",
            "outputs": [],
            "stateMutability": "nonpayable",
            "type": "function"
        },
        {
            "inputs": [
                {
                    "components": [
                        {
                            "internalType": "address",
                            "name": "studentAddress",
                            "type": "address"
                        },
                        {
                            "internalType": "string",
                            "name": "name",
                            "type": "string"
                        },
                        {
                            "internalType": "string",
                            "name": "qualification",
                            "type": "string"
                        },
                        {
                            "internalType": "string",
                            "name": "major",
                            "type": "string"
                        },
                        {
                            "internalType": "string",
                            "name": "ipfsHash",
                            "type": "string"
                        }
                    ],
                    "internalType": "struct VillvayCerts.Certificate",
                    "name": "cert",
                    "type": "tuple"
                },
                {
                    "internalType": "bytes",
                    "name": "signature",
                    "type": "bytes"
                }
            ],
            "name": "verifyCert",
            "outputs": [
                {
                    "internalType": "bool",
                    "name": "",
                    "type": "bool"
                }
            ],
            "stateMutability": "view",
            "type": "function"
        }
    ],
    "bytecode": "0x6101406040523480156200001257600080fd5b506040518060400160405280601981526020017f54686520556e6976657273697479206f662056696c6c766179000000000000008152506040518060400160405280600381526020017f312e3000000000000000000000000000000000000000000000000000000000008152506200009f620000936200015760201b60201c565b6200015f60201b60201c565b60008280519060200120905060008280519060200120905060007f8b73c3c69bb8fe3d512ecc4cf759cc79239f7b179b0ffacaa9a75d522b39400f90508260e081815250508161010081815250504660a08181525050620001088184846200022360201b60201c565b608081815250503073ffffffffffffffffffffffffffffffffffffffff1660c08173ffffffffffffffffffffffffffffffffffffffff1681525050806101208181525050505050505062000337565b600033905090565b60008060009054906101000a900473ffffffffffffffffffffffffffffffffffffffff169050816000806101000a81548173ffffffffffffffffffffffffffffffffffffffff021916908373ffffffffffffffffffffffffffffffffffffffff1602179055508173ffffffffffffffffffffffffffffffffffffffff168173ffffffffffffffffffffffffffffffffffffffff167f8be0079c531659141344cd1fd0a4f28419497f9722a3daafe3b4186f6b6457e060405160405180910390a35050565b6000838383463060405160200162000240959493929190620002da565b6040516020818303038152906040528051906020012090509392505050565b6000819050919050565b62000274816200025f565b82525050565b6000819050919050565b6200028f816200027a565b82525050565b600073ffffffffffffffffffffffffffffffffffffffff82169050919050565b6000620002c28262000295565b9050919050565b620002d481620002b5565b82525050565b600060a082019050620002f1600083018862000269565b62000300602083018762000269565b6200030f604083018662000269565b6200031e606083018562000284565b6200032d6080830184620002c9565b9695505050505050565b60805160a05160c05160e0516101005161012051611def620003876000396000610a9b01526000610add01526000610abc015260006109f101526000610a4701526000610a700152611def6000f3fe608060405234801561001057600080fd5b50600436106100625760003560e01c806363c49fae14610067578063715018a6146100975780638da5cb5b146100a15780638f3987ca146100bf578063efd79c2a146100ef578063f2fde38b1461010b575b600080fd5b610081600480360381019061007c9190610f4a565b610127565b60405161008e91906110a1565b60405180910390f35b61009f61041e565b005b6100a9610432565b6040516100b691906110d2565b60405180910390f35b6100d960048036038101906100d49190611176565b61045b565b6040516100e6919061120d565b60405180910390f35b61010960048036038101906101049190611228565b610520565b005b61012560048036038101906101209190610f4a565b6105f7565b005b61012f610e9d565b600160008373ffffffffffffffffffffffffffffffffffffffff1673ffffffffffffffffffffffffffffffffffffffff1681526020019081526020016000206040518060a00160405290816000820160009054906101000a900473ffffffffffffffffffffffffffffffffffffffff1673ffffffffffffffffffffffffffffffffffffffff1673ffffffffffffffffffffffffffffffffffffffff1681526020016001820180546101df906112b3565b80601f016020809104026020016040519081016040528092919081815260200182805461020b906112b3565b80156102585780601f1061022d57610100808354040283529160200191610258565b820191906000526020600020905b81548152906001019060200180831161023b57829003601f168201915b50505050508152602001600282018054610271906112b3565b80601f016020809104026020016040519081016040528092919081815260200182805461029d906112b3565b80156102ea5780601f106102bf576101008083540402835291602001916102ea565b820191906000526020600020905b8154815290600101906020018083116102cd57829003601f168201915b50505050508152602001600382018054610303906112b3565b80601f016020809104026020016040519081016040528092919081815260200182805461032f906112b3565b801561037c5780601f106103515761010080835404028352916020019161037c565b820191906000526020600020905b81548152906001019060200180831161035f57829003601f168201915b50505050508152602001600482018054610395906112b3565b80601f01602080910402602001604051908101604052809291908181526020018280546103c1906112b3565b801561040e5780601f106103e35761010080835404028352916020019161040e565b820191906000526020600020905b8154815290600101906020018083116103f157829003601f168201915b5050505050815250509050919050565b61042661067a565b61043060006106f8565b565b60008060009054906101000a900473ffffffffffffffffffffffffffffffffffffffff16905090565b6000806104b461046a866107bc565b85858080601f016020809104026020016040519081016040528093929190818152602001838380828437600081840152601f19601f820116905080830192505050505050506108c9565b90506104c66104c1610432565b6108e2565b6104cf816108e2565b6104d7610432565b73ffffffffffffffffffffffffffffffffffffffff168173ffffffffffffffffffffffffffffffffffffffff1603610513576001915050610519565b60009150505b9392505050565b61052861067a565b610530610432565b73ffffffffffffffffffffffffffffffffffffffff1661054e61097b565b73ffffffffffffffffffffffffffffffffffffffff16146105a4576040517f08c379a000000000000000000000000000000000000000000000000000000000815260040161059b90611367565b60405180910390fd5b80600160008473ffffffffffffffffffffffffffffffffffffffff1673ffffffffffffffffffffffffffffffffffffffff16815260200190815260200160002081816105f0919061183e565b9050505050565b6105ff61067a565b600073ffffffffffffffffffffffffffffffffffffffff168173ffffffffffffffffffffffffffffffffffffffff160361066e576040517f08c379a0000000000000000000000000000000000000000000000000000000008152600401610665906118be565b60405180910390fd5b610677816106f8565b50565b61068261097b565b73ffffffffffffffffffffffffffffffffffffffff166106a0610432565b73ffffffffffffffffffffffffffffffffffffffff16146106f6576040517f08c379a00000000000000000000000000000000000000000000000000000000081526004016106ed9061192a565b60405180910390fd5b565b60008060009054906101000a900473ffffffffffffffffffffffffffffffffffffffff169050816000806101000a81548173ffffffffffffffffffffffffffffffffffffffff021916908373ffffffffffffffffffffffffffffffffffffffff1602179055508173ffffffffffffffffffffffffffffffffffffffff168173ffffffffffffffffffffffffffffffffffffffff167f8be0079c531659141344cd1fd0a4f28419497f9722a3daafe3b4186f6b6457e060405160405180910390a35050565b6000806108be7ff33c4a374138584b8d6555f19d1c7a46759ff18eb7c07c1bdd040f9dfd249ebc8460000160208101906107f69190610f4a565b858060200190610806919061146c565b604051610814929190611989565b604051809103902086806040019061082c919061146c565b60405161083a929190611989565b6040518091039020878060600190610852919061146c565b604051610860929190611989565b6040518091039020888060800190610878919061146c565b604051610886929190611989565b60405180910390206040516020016108a3969594939291906119bb565b60405160208183030381529060405280519060200120610983565b905080915050919050565b6000806108d6848461099d565b90508091505092915050565b610978816040516024016108f691906110d2565b6040516020818303038152906040527f2c2ecbc2000000000000000000000000000000000000000000000000000000007bffffffffffffffffffffffffffffffffffffffffffffffffffffffff19166020820180517bffffffffffffffffffffffffffffffffffffffffffffffffffffffff83818316178352505050506109c4565b50565b600033905090565b60006109966109906109ed565b83610b07565b9050919050565b60008060006109ac8585610b3a565b915091506109b981610b8b565b819250505092915050565b60008151905060006a636f6e736f6c652e6c6f679050602083016000808483855afa5050505050565b60007f000000000000000000000000000000000000000000000000000000000000000073ffffffffffffffffffffffffffffffffffffffff163073ffffffffffffffffffffffffffffffffffffffff16148015610a6957507f000000000000000000000000000000000000000000000000000000000000000046145b15610a96577f00000000000000000000000000000000000000000000000000000000000000009050610b04565b610b017f00000000000000000000000000000000000000000000000000000000000000007f00000000000000000000000000000000000000000000000000000000000000007f0000000000000000000000000000000000000000000000000000000000000000610d57565b90505b90565b60008282604051602001610b1c929190611a94565b60405160208183030381529060405280519060200120905092915050565b6000806041835103610b7b5760008060006020860151925060408601519150606086015160001a9050610b6f87828585610d91565b94509450505050610b84565b60006002915091505b9250929050565b60006004811115610b9f57610b9e611acb565b5b816004811115610bb257610bb1611acb565b5b0315610d545760016004811115610bcc57610bcb611acb565b5b816004811115610bdf57610bde611acb565b5b03610c1f576040517f08c379a0000000000000000000000000000000000000000000000000000000008152600401610c1690611b46565b60405180910390fd5b60026004811115610c3357610c32611acb565b5b816004811115610c4657610c45611acb565b5b03610c86576040517f08c379a0000000000000000000000000000000000000000000000000000000008152600401610c7d90611bb2565b60405180910390fd5b60036004811115610c9a57610c99611acb565b5b816004811115610cad57610cac611acb565b5b03610ced576040517f08c379a0000000000000000000000000000000000000000000000000000000008152600401610ce490611c44565b60405180910390fd5b600480811115610d0057610cff611acb565b5b816004811115610d1357610d12611acb565b5b03610d53576040517f08c379a0000000000000000000000000000000000000000000000000000000008152600401610d4a90611cd6565b60405180910390fd5b5b50565b60008383834630604051602001610d72959493929190611d05565b6040516020818303038152906040528051906020012090509392505050565b6000807f7fffffffffffffffffffffffffffffff5d576e7357a4501ddfe92f46681b20a08360001c1115610dcc576000600391509150610e94565b601b8560ff1614158015610de45750601c8560ff1614155b15610df6576000600491509150610e94565b600060018787878760405160008152602001604052604051610e1b9493929190611d74565b6020604051602081039080840390855afa158015610e3d573d6000803e3d6000fd5b505050602060405103519050600073ffffffffffffffffffffffffffffffffffffffff168173ffffffffffffffffffffffffffffffffffffffff1603610e8b57600060019250925050610e94565b80600092509250505b94509492505050565b6040518060a00160405280600073ffffffffffffffffffffffffffffffffffffffff168152602001606081526020016060815260200160608152602001606081525090565b600080fd5b600080fd5b600073ffffffffffffffffffffffffffffffffffffffff82169050919050565b6000610f1782610eec565b9050919050565b610f2781610f0c565b8114610f3257600080fd5b50565b600081359050610f4481610f1e565b92915050565b600060208284031215610f6057610f5f610ee2565b5b6000610f6e84828501610f35565b91505092915050565b610f8081610f0c565b82525050565b600081519050919050565b600082825260208201905092915050565b60005b83811015610fc0578082015181840152602081019050610fa5565b60008484015250505050565b6000601f19601f8301169050919050565b6000610fe882610f86565b610ff28185610f91565b9350611002818560208601610fa2565b61100b81610fcc565b840191505092915050565b600060a08301600083015161102e6000860182610f77565b50602083015184820360208601526110468282610fdd565b915050604083015184820360408601526110608282610fdd565b9150506060830151848203606086015261107a8282610fdd565b915050608083015184820360808601526110948282610fdd565b9150508091505092915050565b600060208201905081810360008301526110bb8184611016565b905092915050565b6110cc81610f0c565b82525050565b60006020820190506110e760008301846110c3565b92915050565b600080fd5b600060a08284031215611108576111076110ed565b5b81905092915050565b600080fd5b600080fd5b600080fd5b60008083601f84011261113657611135611111565b5b8235905067ffffffffffffffff81111561115357611152611116565b5b60208301915083600182028301111561116f5761116e61111b565b5b9250929050565b60008060006040848603121561118f5761118e610ee2565b5b600084013567ffffffffffffffff8111156111ad576111ac610ee7565b5b6111b9868287016110f2565b935050602084013567ffffffffffffffff8111156111da576111d9610ee7565b5b6111e686828701611120565b92509250509250925092565b60008115159050919050565b611207816111f2565b82525050565b600060208201905061122260008301846111fe565b92915050565b6000806040838503121561123f5761123e610ee2565b5b600061124d85828601610f35565b925050602083013567ffffffffffffffff81111561126e5761126d610ee7565b5b61127a858286016110f2565b9150509250929050565b7f4e487b7100000000000000000000000000000000000000000000000000000000600052602260045260246000fd5b600060028204905060018216806112cb57607f821691505b6020821081036112de576112dd611284565b5b50919050565b600082825260208201905092915050565b7f596f7520617265206e6f742074686520556e6976657273697479212121203e3a60008201527f2800000000000000000000000000000000000000000000000000000000000000602082015250565b60006113516021836112e4565b915061135c826112f5565b604082019050919050565b6000602082019050818103600083015261138081611344565b9050919050565b6000813561139481610f1e565b80915050919050565b60008160001b9050919050565b600073ffffffffffffffffffffffffffffffffffffffff6113ca8461139d565b9350801983169250808416831791505092915050565b6000819050919050565b60006114056114006113fb84610eec565b6113e0565b610eec565b9050919050565b6000611417826113ea565b9050919050565b60006114298261140c565b9050919050565b6000819050919050565b6114438261141e565b61145661144f82611430565b83546113aa565b8255505050565b600080fd5b600080fd5b600080fd5b600080833560016020038436030381126114895761148861145d565b5b80840192508235915067ffffffffffffffff8211156114ab576114aa611462565b5b6020830192506001820236038313156114c7576114c6611467565b5b509250929050565b600082905092915050565b7f4e487b7100000000000000000000000000000000000000000000000000000000600052604160045260246000fd5b60008190508160005260206000209050919050565b60006020601f8301049050919050565b600082821b905092915050565b60006008830261156b7fffffffffffffffffffffffffffffffffffffffffffffffffffffffffffffffff8261152e565b611575868361152e565b95508019841693508086168417925050509392505050565b6000819050919050565b60006115b26115ad6115a88461158d565b6113e0565b61158d565b9050919050565b6000819050919050565b6115cc83611597565b6115e06115d8826115b9565b84845461153b565b825550505050565b600090565b6115f56115e8565b6116008184846115c3565b505050565b5b81811015611624576116196000826115ed565b600181019050611606565b5050565b601f8211156116695761163a81611509565b6116438461151e565b81016020851015611652578190505b61166661165e8561151e565b830182611605565b50505b505050565b600082821c905092915050565b600061168c6000198460080261166e565b1980831691505092915050565b60006116a5838361167b565b9150826002028217905092915050565b6116bf83836114cf565b67ffffffffffffffff8111156116d8576116d76114da565b5b6116e282546112b3565b6116ed828285611628565b6000601f83116001811461171c576000841561170a578287013590505b6117148582611699565b86555061177c565b601f19841661172a86611509565b60005b828110156117525784890135825560018201915060208501945060208101905061172d565b8683101561176f578489013561176b601f89168261167b565b8355505b6001600288020188555050505b50505050505050565b6117908383836116b5565b505050565b6000810160008301806117a781611387565b90506117b3818461143a565b50505060018101602083016117c8818561146c565b6117d3818386611785565b5050505060028101604083016117e9818561146c565b6117f4818386611785565b50505050600381016060830161180a818561146c565b611815818386611785565b50505050600481016080830161182b818561146c565b611836818386611785565b505050505050565b6118488282611795565b5050565b7f4f776e61626c653a206e6577206f776e657220697320746865207a65726f206160008201527f6464726573730000000000000000000000000000000000000000000000000000602082015250565b60006118a86026836112e4565b91506118b38261184c565b604082019050919050565b600060208201905081810360008301526118d78161189b565b9050919050565b7f4f776e61626c653a2063616c6c6572206973206e6f7420746865206f776e6572600082015250565b60006119146020836112e4565b915061191f826118de565b602082019050919050565b6000602082019050818103600083015261194381611907565b9050919050565b600081905092915050565b82818337600083830152505050565b6000611970838561194a565b935061197d838584611955565b82840190509392505050565b6000611996828486611964565b91508190509392505050565b6000819050919050565b6119b5816119a2565b82525050565b600060c0820190506119d060008301896119ac565b6119dd60208301886110c3565b6119ea60408301876119ac565b6119f760608301866119ac565b611a0460808301856119ac565b611a1160a08301846119ac565b979650505050505050565b600081905092915050565b7f1901000000000000000000000000000000000000000000000000000000000000600082015250565b6000611a5d600283611a1c565b9150611a6882611a27565b600282019050919050565b6000819050919050565b611a8e611a89826119a2565b611a73565b82525050565b6000611a9f82611a50565b9150611aab8285611a7d565b602082019150611abb8284611a7d565b6020820191508190509392505050565b7f4e487b7100000000000000000000000000000000000000000000000000000000600052602160045260246000fd5b7f45434453413a20696e76616c6964207369676e61747572650000000000000000600082015250565b6000611b306018836112e4565b9150611b3b82611afa565b602082019050919050565b60006020820190508181036000830152611b5f81611b23565b9050919050565b7f45434453413a20696e76616c6964207369676e6174757265206c656e67746800600082015250565b6000611b9c601f836112e4565b9150611ba782611b66565b602082019050919050565b60006020820190508181036000830152611bcb81611b8f565b9050919050565b7f45434453413a20696e76616c6964207369676e6174757265202773272076616c60008201527f7565000000000000000000000000000000000000000000000000000000000000602082015250565b6000611c2e6022836112e4565b9150611c3982611bd2565b604082019050919050565b60006020820190508181036000830152611c5d81611c21565b9050919050565b7f45434453413a20696e76616c6964207369676e6174757265202776272076616c60008201527f7565000000000000000000000000000000000000000000000000000000000000602082015250565b6000611cc06022836112e4565b9150611ccb82611c64565b604082019050919050565b60006020820190508181036000830152611cef81611cb3565b9050919050565b611cff8161158d565b82525050565b600060a082019050611d1a60008301886119ac565b611d2760208301876119ac565b611d3460408301866119ac565b611d416060830185611cf6565b611d4e60808301846110c3565b9695505050505050565b600060ff82169050919050565b611d6e81611d58565b82525050565b6000608082019050611d8960008301876119ac565b611d966020830186611d65565b611da360408301856119ac565b611db060608301846119ac565b9594505050505056fea2646970667358221220c542504e08d9455c519efd404ffba1bc040ef95681689883abf277af220ec1c564736f6c63430008100033",
    "linkReferences": {},
    "deployedLinkReferences": {}
}