{
    "_format": "hh-sol-artifact-1",
    "contractName": "VillvayCerts",
    "sourceName": "contracts/VillvayCerts.sol",
    "abi": [
        {
            "inputs": [],
            "stateMutability": "nonpayable",
            "type": "constructor"
        },
        {
            "anonymous": false,
            "inputs": [
                {
                    "indexed": true,
                    "internalType": "address",
                    "name": "previousOwner",
                    "type": "address"
                },
                {
                    "indexed": true,
                    "internalType": "address",
                    "name": "newOwner",
                    "type": "address"
                }
            ],
            "name": "OwnershipTransferred",
            "type": "event"
        },
        {
            "inputs": [
                {
                    "internalType": "address",
                    "name": "student",
                    "type": "address"
                }
            ],
            "name": "getCertificateByStudent",
            "outputs": [
                {
                    "components": [
                        {
                            "internalType": "address",
                            "name": "studentAddress",
                            "type": "address"
                        },
                        {
                            "internalType": "string",
                            "name": "name",
                            "type": "string"
                        },
                        {
                            "internalType": "string",
                            "name": "qualification",
                            "type": "string"
                        },
                        {
                            "internalType": "string",
                            "name": "major",
                            "type": "string"
                        },
                        {
                            "internalType": "string",
                            "name": "ipfsHash",
                            "type": "string"
                        }
                    ],
                    "internalType": "struct VillvayCerts.Certificate",
                    "name": "",
                    "type": "tuple"
                }
            ],
            "stateMutability": "view",
            "type": "function"
        },
        {
            "inputs": [
                {
                    "internalType": "address",
                    "name": "student",
                    "type": "address"
                },
                {
                    "components": [
                        {
                            "internalType": "address",
                            "name": "studentAddress",
                            "type": "address"
                        },
                        {
                            "internalType": "string",
                            "name": "name",
                            "type": "string"
                        },
                        {
                            "internalType": "string",
                            "name": "qualification",
                            "type": "string"
                        },
                        {
                            "internalType": "string",
                            "name": "major",
                            "type": "string"
                        },
                        {
                            "internalType": "string",
                            "name": "ipfsHash",
                            "type": "string"
                        }
                    ],
                    "internalType": "struct VillvayCerts.Certificate",
                    "name": "details",
                    "type": "tuple"
                }
            ],
            "name": "grantCertificate",
            "outputs": [],
            "stateMutability": "nonpayable",
            "type": "function"
        },
        {
            "inputs": [],
            "name": "owner",
            "outputs": [
                {
                    "internalType": "address",
                    "name": "",
                    "type": "address"
                }
            ],
            "stateMutability": "view",
            "type": "function"
        },
        {
            "inputs": [],
            "name": "renounceOwnership",
            "outputs": [],
            "stateMutability": "nonpayable",
            "type": "function"
        },
        {
            "inputs": [
                {
                    "internalType": "address",
                    "name": "newOwner",
                    "type": "address"
                }
            ],
            "name": "transferOwnership",
            "outputs": [],
            "stateMutability": "nonpayable",
            "type": "function"
        },
        {
            "inputs": [
                {
                    "components": [
                        {
                            "internalType": "address",
                            "name": "studentAddress",
                            "type": "address"
                        },
                        {
                            "internalType": "string",
                            "name": "name",
                            "type": "string"
                        },
                        {
                            "internalType": "string",
                            "name": "qualification",
                            "type": "string"
                        },
                        {
                            "internalType": "string",
                            "name": "major",
                            "type": "string"
                        },
                        {
                            "internalType": "string",
                            "name": "ipfsHash",
                            "type": "string"
                        }
                    ],
                    "internalType": "struct VillvayCerts.Certificate",
                    "name": "cert",
                    "type": "tuple"
                },
                {
                    "internalType": "bytes",
                    "name": "signature",
                    "type": "bytes"
                }
            ],
            "name": "verifyCert",
            "outputs": [
                {
                    "internalType": "bool",
                    "name": "",
                    "type": "bool"
                }
            ],
            "stateMutability": "view",
            "type": "function"
        }
    ],
    "bytecode": "0x6101406040523480156200001257600080fd5b506040518060400160405280601981526020017f54686520556e6976657273697479206f662056696c6c766179000000000000008152506040518060400160405280600381526020017f312e3000000000000000000000000000000000000000000000000000000000008152506200009f620000936200015760201b60201c565b6200015f60201b60201c565b60008280519060200120905060008280519060200120905060007f8b73c3c69bb8fe3d512ecc4cf759cc79239f7b179b0ffacaa9a75d522b39400f90508260e081815250508161010081815250504660a08181525050620001088184846200022360201b60201c565b608081815250503073ffffffffffffffffffffffffffffffffffffffff1660c08173ffffffffffffffffffffffffffffffffffffffff1681525050806101208181525050505050505062000337565b600033905090565b60008060009054906101000a900473ffffffffffffffffffffffffffffffffffffffff169050816000806101000a81548173ffffffffffffffffffffffffffffffffffffffff021916908373ffffffffffffffffffffffffffffffffffffffff1602179055508173ffffffffffffffffffffffffffffffffffffffff168173ffffffffffffffffffffffffffffffffffffffff167f8be0079c531659141344cd1fd0a4f28419497f9722a3daafe3b4186f6b6457e060405160405180910390a35050565b6000838383463060405160200162000240959493929190620002da565b6040516020818303038152906040528051906020012090509392505050565b6000819050919050565b62000274816200025f565b82525050565b6000819050919050565b6200028f816200027a565b82525050565b600073ffffffffffffffffffffffffffffffffffffffff82169050919050565b6000620002c28262000295565b9050919050565b620002d481620002b5565b82525050565b600060a082019050620002f1600083018862000269565b62000300602083018762000269565b6200030f604083018662000269565b6200031e606083018562000284565b6200032d6080830184620002c9565b9695505050505050565b60805160a05160c05160e0516101005161012051611d146200038760003960006109c001526000610a02015260006109e1015260006109160152600061096c015260006109950152611d146000f3fe608060405234801561001057600080fd5b50600436106100625760003560e01c806363c49fae14610067578063715018a6146100975780638da5cb5b146100a15780638f3987ca146100bf578063efd79c2a146100ef578063f2fde38b1461010b575b600080fd5b610081600480360381019061007c9190610e6f565b610127565b60405161008e9190610fc6565b60405180910390f35b61009f61041e565b005b6100a9610432565b6040516100b69190610ff7565b60405180910390f35b6100d960048036038101906100d4919061109b565b61045b565b6040516100e69190611132565b60405180910390f35b6101096004803603810190610104919061114d565b610507565b005b61012560048036038101906101209190610e6f565b6105de565b005b61012f610dc2565b600160008373ffffffffffffffffffffffffffffffffffffffff1673ffffffffffffffffffffffffffffffffffffffff1681526020019081526020016000206040518060a00160405290816000820160009054906101000a900473ffffffffffffffffffffffffffffffffffffffff1673ffffffffffffffffffffffffffffffffffffffff1673ffffffffffffffffffffffffffffffffffffffff1681526020016001820180546101df906111d8565b80601f016020809104026020016040519081016040528092919081815260200182805461020b906111d8565b80156102585780601f1061022d57610100808354040283529160200191610258565b820191906000526020600020905b81548152906001019060200180831161023b57829003601f168201915b50505050508152602001600282018054610271906111d8565b80601f016020809104026020016040519081016040528092919081815260200182805461029d906111d8565b80156102ea5780601f106102bf576101008083540402835291602001916102ea565b820191906000526020600020905b8154815290600101906020018083116102cd57829003601f168201915b50505050508152602001600382018054610303906111d8565b80601f016020809104026020016040519081016040528092919081815260200182805461032f906111d8565b801561037c5780601f106103515761010080835404028352916020019161037c565b820191906000526020600020905b81548152906001019060200180831161035f57829003601f168201915b50505050508152602001600482018054610395906111d8565b80601f01602080910402602001604051908101604052809291908181526020018280546103c1906111d8565b801561040e5780601f106103e35761010080835404028352916020019161040e565b820191906000526020600020905b8154815290600101906020018083116103f157829003601f168201915b5050505050815250509050919050565b610426610661565b61043060006106df565b565b60008060009054906101000a900473ffffffffffffffffffffffffffffffffffffffff16905090565b6000806104b461046a866107a3565b85858080601f016020809104026020016040519081016040528093929190818152602001838380828437600081840152601f19601f820116905080830192505050505050506108b0565b90506104be610432565b73ffffffffffffffffffffffffffffffffffffffff168173ffffffffffffffffffffffffffffffffffffffff16036104fa576001915050610500565b60009150505b9392505050565b61050f610661565b610517610432565b73ffffffffffffffffffffffffffffffffffffffff166105356108c9565b73ffffffffffffffffffffffffffffffffffffffff161461058b576040517f08c379a00000000000000000000000000000000000000000000000000000000081526004016105829061128c565b60405180910390fd5b80600160008473ffffffffffffffffffffffffffffffffffffffff1673ffffffffffffffffffffffffffffffffffffffff16815260200190815260200160002081816105d79190611763565b9050505050565b6105e6610661565b600073ffffffffffffffffffffffffffffffffffffffff168173ffffffffffffffffffffffffffffffffffffffff1603610655576040517f08c379a000000000000000000000000000000000000000000000000000000000815260040161064c906117e3565b60405180910390fd5b61065e816106df565b50565b6106696108c9565b73ffffffffffffffffffffffffffffffffffffffff16610687610432565b73ffffffffffffffffffffffffffffffffffffffff16146106dd576040517f08c379a00000000000000000000000000000000000000000000000000000000081526004016106d49061184f565b60405180910390fd5b565b60008060009054906101000a900473ffffffffffffffffffffffffffffffffffffffff169050816000806101000a81548173ffffffffffffffffffffffffffffffffffffffff021916908373ffffffffffffffffffffffffffffffffffffffff1602179055508173ffffffffffffffffffffffffffffffffffffffff168173ffffffffffffffffffffffffffffffffffffffff167f8be0079c531659141344cd1fd0a4f28419497f9722a3daafe3b4186f6b6457e060405160405180910390a35050565b6000806108a57ff33c4a374138584b8d6555f19d1c7a46759ff18eb7c07c1bdd040f9dfd249ebc8460000160208101906107dd9190610e6f565b8580602001906107ed9190611391565b6040516107fb9291906118ae565b60405180910390208680604001906108139190611391565b6040516108219291906118ae565b60405180910390208780606001906108399190611391565b6040516108479291906118ae565b604051809103902088806080019061085f9190611391565b60405161086d9291906118ae565b604051809103902060405160200161088a969594939291906118e0565b604051602081830303815290604052805190602001206108d1565b905080915050919050565b6000806108bd84846108eb565b90508091505092915050565b600033905090565b60006108e46108de610912565b83610a2c565b9050919050565b60008060006108fa8585610a5f565b9150915061090781610ab0565b819250505092915050565b60007f000000000000000000000000000000000000000000000000000000000000000073ffffffffffffffffffffffffffffffffffffffff163073ffffffffffffffffffffffffffffffffffffffff1614801561098e57507f000000000000000000000000000000000000000000000000000000000000000046145b156109bb577f00000000000000000000000000000000000000000000000000000000000000009050610a29565b610a267f00000000000000000000000000000000000000000000000000000000000000007f00000000000000000000000000000000000000000000000000000000000000007f0000000000000000000000000000000000000000000000000000000000000000610c7c565b90505b90565b60008282604051602001610a419291906119b9565b60405160208183030381529060405280519060200120905092915050565b6000806041835103610aa05760008060006020860151925060408601519150606086015160001a9050610a9487828585610cb6565b94509450505050610aa9565b60006002915091505b9250929050565b60006004811115610ac457610ac36119f0565b5b816004811115610ad757610ad66119f0565b5b0315610c795760016004811115610af157610af06119f0565b5b816004811115610b0457610b036119f0565b5b03610b44576040517f08c379a0000000000000000000000000000000000000000000000000000000008152600401610b3b90611a6b565b60405180910390fd5b60026004811115610b5857610b576119f0565b5b816004811115610b6b57610b6a6119f0565b5b03610bab576040517f08c379a0000000000000000000000000000000000000000000000000000000008152600401610ba290611ad7565b60405180910390fd5b60036004811115610bbf57610bbe6119f0565b5b816004811115610bd257610bd16119f0565b5b03610c12576040517f08c379a0000000000000000000000000000000000000000000000000000000008152600401610c0990611b69565b60405180910390fd5b600480811115610c2557610c246119f0565b5b816004811115610c3857610c376119f0565b5b03610c78576040517f08c379a0000000000000000000000000000000000000000000000000000000008152600401610c6f90611bfb565b60405180910390fd5b5b50565b60008383834630604051602001610c97959493929190611c2a565b6040516020818303038152906040528051906020012090509392505050565b6000807f7fffffffffffffffffffffffffffffff5d576e7357a4501ddfe92f46681b20a08360001c1115610cf1576000600391509150610db9565b601b8560ff1614158015610d095750601c8560ff1614155b15610d1b576000600491509150610db9565b600060018787878760405160008152602001604052604051610d409493929190611c99565b6020604051602081039080840390855afa158015610d62573d6000803e3d6000fd5b505050602060405103519050600073ffffffffffffffffffffffffffffffffffffffff168173ffffffffffffffffffffffffffffffffffffffff1603610db057600060019250925050610db9565b80600092509250505b94509492505050565b6040518060a00160405280600073ffffffffffffffffffffffffffffffffffffffff168152602001606081526020016060815260200160608152602001606081525090565b600080fd5b600080fd5b600073ffffffffffffffffffffffffffffffffffffffff82169050919050565b6000610e3c82610e11565b9050919050565b610e4c81610e31565b8114610e5757600080fd5b50565b600081359050610e6981610e43565b92915050565b600060208284031215610e8557610e84610e07565b5b6000610e9384828501610e5a565b91505092915050565b610ea581610e31565b82525050565b600081519050919050565b600082825260208201905092915050565b60005b83811015610ee5578082015181840152602081019050610eca565b60008484015250505050565b6000601f19601f8301169050919050565b6000610f0d82610eab565b610f178185610eb6565b9350610f27818560208601610ec7565b610f3081610ef1565b840191505092915050565b600060a083016000830151610f536000860182610e9c565b5060208301518482036020860152610f6b8282610f02565b91505060408301518482036040860152610f858282610f02565b91505060608301518482036060860152610f9f8282610f02565b91505060808301518482036080860152610fb98282610f02565b9150508091505092915050565b60006020820190508181036000830152610fe08184610f3b565b905092915050565b610ff181610e31565b82525050565b600060208201905061100c6000830184610fe8565b92915050565b600080fd5b600060a0828403121561102d5761102c611012565b5b81905092915050565b600080fd5b600080fd5b600080fd5b60008083601f84011261105b5761105a611036565b5b8235905067ffffffffffffffff8111156110785761107761103b565b5b60208301915083600182028301111561109457611093611040565b5b9250929050565b6000806000604084860312156110b4576110b3610e07565b5b600084013567ffffffffffffffff8111156110d2576110d1610e0c565b5b6110de86828701611017565b935050602084013567ffffffffffffffff8111156110ff576110fe610e0c565b5b61110b86828701611045565b92509250509250925092565b60008115159050919050565b61112c81611117565b82525050565b60006020820190506111476000830184611123565b92915050565b6000806040838503121561116457611163610e07565b5b600061117285828601610e5a565b925050602083013567ffffffffffffffff81111561119357611192610e0c565b5b61119f85828601611017565b9150509250929050565b7f4e487b7100000000000000000000000000000000000000000000000000000000600052602260045260246000fd5b600060028204905060018216806111f057607f821691505b602082108103611203576112026111a9565b5b50919050565b600082825260208201905092915050565b7f596f7520617265206e6f742074686520556e6976657273697479212121203e3a60008201527f2800000000000000000000000000000000000000000000000000000000000000602082015250565b6000611276602183611209565b91506112818261121a565b604082019050919050565b600060208201905081810360008301526112a581611269565b9050919050565b600081356112b981610e43565b80915050919050565b60008160001b9050919050565b600073ffffffffffffffffffffffffffffffffffffffff6112ef846112c2565b9350801983169250808416831791505092915050565b6000819050919050565b600061132a61132561132084610e11565b611305565b610e11565b9050919050565b600061133c8261130f565b9050919050565b600061134e82611331565b9050919050565b6000819050919050565b61136882611343565b61137b61137482611355565b83546112cf565b8255505050565b600080fd5b600080fd5b600080fd5b600080833560016020038436030381126113ae576113ad611382565b5b80840192508235915067ffffffffffffffff8211156113d0576113cf611387565b5b6020830192506001820236038313156113ec576113eb61138c565b5b509250929050565b600082905092915050565b7f4e487b7100000000000000000000000000000000000000000000000000000000600052604160045260246000fd5b60008190508160005260206000209050919050565b60006020601f8301049050919050565b600082821b905092915050565b6000600883026114907fffffffffffffffffffffffffffffffffffffffffffffffffffffffffffffffff82611453565b61149a8683611453565b95508019841693508086168417925050509392505050565b6000819050919050565b60006114d76114d26114cd846114b2565b611305565b6114b2565b9050919050565b6000819050919050565b6114f1836114bc565b6115056114fd826114de565b848454611460565b825550505050565b600090565b61151a61150d565b6115258184846114e8565b505050565b5b818110156115495761153e600082611512565b60018101905061152b565b5050565b601f82111561158e5761155f8161142e565b61156884611443565b81016020851015611577578190505b61158b61158385611443565b83018261152a565b50505b505050565b600082821c905092915050565b60006115b160001984600802611593565b1980831691505092915050565b60006115ca83836115a0565b9150826002028217905092915050565b6115e483836113f4565b67ffffffffffffffff8111156115fd576115fc6113ff565b5b61160782546111d8565b61161282828561154d565b6000601f831160018114611641576000841561162f578287013590505b61163985826115be565b8655506116a1565b601f19841661164f8661142e565b60005b8281101561167757848901358255600182019150602085019450602081019050611652565b868310156116945784890135611690601f8916826115a0565b8355505b6001600288020188555050505b50505050505050565b6116b58383836115da565b505050565b6000810160008301806116cc816112ac565b90506116d8818461135f565b50505060018101602083016116ed8185611391565b6116f88183866116aa565b50505050600281016040830161170e8185611391565b6117198183866116aa565b50505050600381016060830161172f8185611391565b61173a8183866116aa565b5050505060048101608083016117508185611391565b61175b8183866116aa565b505050505050565b61176d82826116ba565b5050565b7f4f776e61626c653a206e6577206f776e657220697320746865207a65726f206160008201527f6464726573730000000000000000000000000000000000000000000000000000602082015250565b60006117cd602683611209565b91506117d882611771565b604082019050919050565b600060208201905081810360008301526117fc816117c0565b9050919050565b7f4f776e61626c653a2063616c6c6572206973206e6f7420746865206f776e6572600082015250565b6000611839602083611209565b915061184482611803565b602082019050919050565b600060208201905081810360008301526118688161182c565b9050919050565b600081905092915050565b82818337600083830152505050565b6000611895838561186f565b93506118a283858461187a565b82840190509392505050565b60006118bb828486611889565b91508190509392505050565b6000819050919050565b6118da816118c7565b82525050565b600060c0820190506118f560008301896118d1565b6119026020830188610fe8565b61190f60408301876118d1565b61191c60608301866118d1565b61192960808301856118d1565b61193660a08301846118d1565b979650505050505050565b600081905092915050565b7f1901000000000000000000000000000000000000000000000000000000000000600082015250565b6000611982600283611941565b915061198d8261194c565b600282019050919050565b6000819050919050565b6119b36119ae826118c7565b611998565b82525050565b60006119c482611975565b91506119d082856119a2565b6020820191506119e082846119a2565b6020820191508190509392505050565b7f4e487b7100000000000000000000000000000000000000000000000000000000600052602160045260246000fd5b7f45434453413a20696e76616c6964207369676e61747572650000000000000000600082015250565b6000611a55601883611209565b9150611a6082611a1f565b602082019050919050565b60006020820190508181036000830152611a8481611a48565b9050919050565b7f45434453413a20696e76616c6964207369676e6174757265206c656e67746800600082015250565b6000611ac1601f83611209565b9150611acc82611a8b565b602082019050919050565b60006020820190508181036000830152611af081611ab4565b9050919050565b7f45434453413a20696e76616c6964207369676e6174757265202773272076616c60008201527f7565000000000000000000000000000000000000000000000000000000000000602082015250565b6000611b53602283611209565b9150611b5e82611af7565b604082019050919050565b60006020820190508181036000830152611b8281611b46565b9050919050565b7f45434453413a20696e76616c6964207369676e6174757265202776272076616c60008201527f7565000000000000000000000000000000000000000000000000000000000000602082015250565b6000611be5602283611209565b9150611bf082611b89565b604082019050919050565b60006020820190508181036000830152611c1481611bd8565b9050919050565b611c24816114b2565b82525050565b600060a082019050611c3f60008301886118d1565b611c4c60208301876118d1565b611c5960408301866118d1565b611c666060830185611c1b565b611c736080830184610fe8565b9695505050505050565b600060ff82169050919050565b611c9381611c7d565b82525050565b6000608082019050611cae60008301876118d1565b611cbb6020830186611c8a565b611cc860408301856118d1565b611cd560608301846118d1565b9594505050505056fea26469706673582212201cd08b2a73c4dda7bbbef7983a203fb8758ac8765a5e73f628f27fd68427a9ff64736f6c63430008100033",
    "linkReferences": {},
    "deployedLinkReferences": {}
}