{
    "_format": "hh-sol-artifact-1",
    "contractName": "VillvayCerts",
    "sourceName": "contracts/VillvayCerts.sol",
    "abi": [
        {
            "inputs": [],
            "stateMutability": "nonpayable",
            "type": "constructor"
        },
        {
            "anonymous": false,
            "inputs": [
                {
                    "indexed": true,
                    "internalType": "address",
                    "name": "previousOwner",
                    "type": "address"
                },
                {
                    "indexed": true,
                    "internalType": "address",
                    "name": "newOwner",
                    "type": "address"
                }
            ],
            "name": "OwnershipTransferred",
            "type": "event"
        },
        {
            "inputs": [
                {
                    "internalType": "address",
                    "name": "student",
                    "type": "address"
                },
                {
                    "components": [
                        {
                            "internalType": "address",
                            "name": "studentAddress",
                            "type": "address"
                        },
                        {
                            "internalType": "string",
                            "name": "name",
                            "type": "string"
                        },
                        {
                            "internalType": "string",
                            "name": "qualification",
                            "type": "string"
                        },
                        {
                            "internalType": "string",
                            "name": "major",
                            "type": "string"
                        }
                    ],
                    "internalType": "struct VillvayCerts.Certificate",
                    "name": "details",
                    "type": "tuple"
                }
            ],
            "name": "grantCertificate",
            "outputs": [],
            "stateMutability": "nonpayable",
            "type": "function"
        },
        {
            "inputs": [],
            "name": "owner",
            "outputs": [
                {
                    "internalType": "address",
                    "name": "",
                    "type": "address"
                }
            ],
            "stateMutability": "view",
            "type": "function"
        },
        {
            "inputs": [],
            "name": "renounceOwnership",
            "outputs": [],
            "stateMutability": "nonpayable",
            "type": "function"
        },
        {
            "inputs": [
                {
                    "internalType": "address",
                    "name": "newOwner",
                    "type": "address"
                }
            ],
            "name": "transferOwnership",
            "outputs": [],
            "stateMutability": "nonpayable",
            "type": "function"
        },
        {
            "inputs": [
                {
                    "components": [
                        {
                            "internalType": "address",
                            "name": "studentAddress",
                            "type": "address"
                        },
                        {
                            "internalType": "string",
                            "name": "name",
                            "type": "string"
                        },
                        {
                            "internalType": "string",
                            "name": "qualification",
                            "type": "string"
                        },
                        {
                            "internalType": "string",
                            "name": "major",
                            "type": "string"
                        }
                    ],
                    "internalType": "struct VillvayCerts.Certificate",
                    "name": "cert",
                    "type": "tuple"
                },
                {
                    "internalType": "bytes",
                    "name": "signature",
                    "type": "bytes"
                }
            ],
            "name": "verifyCert",
            "outputs": [
                {
                    "internalType": "bool",
                    "name": "",
                    "type": "bool"
                }
            ],
            "stateMutability": "view",
            "type": "function"
        }
    ],
    "bytecode": "0x6101406040523480156200001257600080fd5b506040518060400160405280601981526020017f54686520556e6976657273697479206f662056696c6c766179000000000000008152506040518060400160405280600381526020017f312e3000000000000000000000000000000000000000000000000000000000008152506200009f620000936200015760201b60201c565b6200015f60201b60201c565b60008280519060200120905060008280519060200120905060007f8b73c3c69bb8fe3d512ecc4cf759cc79239f7b179b0ffacaa9a75d522b39400f90508260e081815250508161010081815250504660a08181525050620001088184846200022360201b60201c565b608081815250503073ffffffffffffffffffffffffffffffffffffffff1660c08173ffffffffffffffffffffffffffffffffffffffff1681525050806101208181525050505050505062000337565b600033905090565b60008060009054906101000a900473ffffffffffffffffffffffffffffffffffffffff169050816000806101000a81548173ffffffffffffffffffffffffffffffffffffffff021916908373ffffffffffffffffffffffffffffffffffffffff1602179055508173ffffffffffffffffffffffffffffffffffffffff168173ffffffffffffffffffffffffffffffffffffffff167f8be0079c531659141344cd1fd0a4f28419497f9722a3daafe3b4186f6b6457e060405160405180910390a35050565b6000838383463060405160200162000240959493929190620002da565b6040516020818303038152906040528051906020012090509392505050565b6000819050919050565b62000274816200025f565b82525050565b6000819050919050565b6200028f816200027a565b82525050565b600073ffffffffffffffffffffffffffffffffffffffff82169050919050565b6000620002c28262000295565b9050919050565b620002d481620002b5565b82525050565b600060a082019050620002f1600083018862000269565b62000300602083018762000269565b6200030f604083018662000269565b6200031e606083018562000284565b6200032d6080830184620002c9565b9695505050505050565b60805160a05160c05160e05161010051610120516118d6620003876000396000610742015260006107840152600061076301526000610698015260006106ee0152600061071701526118d66000f3fe608060405234801561001057600080fd5b50600436106100575760003560e01c8063499baec31461005c578063715018a6146100785780638da5cb5b14610082578063d13699fc146100a0578063f2fde38b146100d0575b600080fd5b61007660048036038101906100719190610bd0565b6100ec565b005b6100806101c3565b005b61008a6101d7565b6040516100979190610c3b565b60405180910390f35b6100ba60048036038101906100b59190610cbb565b610200565b6040516100c79190610d52565b60405180910390f35b6100ea60048036038101906100e59190610d6d565b6102c5565b005b6100f4610348565b6100fc6101d7565b73ffffffffffffffffffffffffffffffffffffffff1661011a6103c6565b73ffffffffffffffffffffffffffffffffffffffff1614610170576040517f08c379a000000000000000000000000000000000000000000000000000000000815260040161016790610e1d565b60405180910390fd5b80600160008473ffffffffffffffffffffffffffffffffffffffff1673ffffffffffffffffffffffffffffffffffffffff16815260200190815260200160002081816101bc9190611333565b9050505050565b6101cb610348565b6101d560006103ce565b565b60008060009054906101000a900473ffffffffffffffffffffffffffffffffffffffff16905090565b60008061025961020f86610492565b85858080601f016020809104026020016040519081016040528093929190818152602001838380828437600081840152601f19601f82011690508083019250505050505050610578565b905061026b6102666101d7565b610591565b61027481610591565b61027c6101d7565b73ffffffffffffffffffffffffffffffffffffffff168173ffffffffffffffffffffffffffffffffffffffff16036102b85760019150506102be565b60009150505b9392505050565b6102cd610348565b600073ffffffffffffffffffffffffffffffffffffffff168173ffffffffffffffffffffffffffffffffffffffff160361033c576040517f08c379a0000000000000000000000000000000000000000000000000000000008152600401610333906113b3565b60405180910390fd5b610345816103ce565b50565b6103506103c6565b73ffffffffffffffffffffffffffffffffffffffff1661036e6101d7565b73ffffffffffffffffffffffffffffffffffffffff16146103c4576040517f08c379a00000000000000000000000000000000000000000000000000000000081526004016103bb9061141f565b60405180910390fd5b565b600033905090565b60008060009054906101000a900473ffffffffffffffffffffffffffffffffffffffff169050816000806101000a81548173ffffffffffffffffffffffffffffffffffffffff021916908373ffffffffffffffffffffffffffffffffffffffff1602179055508173ffffffffffffffffffffffffffffffffffffffff168173ffffffffffffffffffffffffffffffffffffffff167f8be0079c531659141344cd1fd0a4f28419497f9722a3daafe3b4186f6b6457e060405160405180910390a35050565b60008061056d7fa54fe659f8952e38ade40e17916adc0a816e72ddcddbb2079c12fea834d52b8d8460000160208101906104cc9190610d6d565b8580602001906104dc9190610f22565b6040516104ea92919061147e565b60405180910390208680604001906105029190610f22565b60405161051092919061147e565b60405180910390208780606001906105289190610f22565b60405161053692919061147e565b60405180910390206040516020016105529594939291906114b0565b6040516020818303038152906040528051906020012061062a565b905080915050919050565b6000806105858484610644565b90508091505092915050565b610627816040516024016105a59190610c3b565b6040516020818303038152906040527f2c2ecbc2000000000000000000000000000000000000000000000000000000007bffffffffffffffffffffffffffffffffffffffffffffffffffffffff19166020820180517bffffffffffffffffffffffffffffffffffffffffffffffffffffffff838183161783525050505061066b565b50565b600061063d610637610694565b836107ae565b9050919050565b600080600061065385856107e1565b9150915061066081610832565b819250505092915050565b60008151905060006a636f6e736f6c652e6c6f679050602083016000808483855afa5050505050565b60007f000000000000000000000000000000000000000000000000000000000000000073ffffffffffffffffffffffffffffffffffffffff163073ffffffffffffffffffffffffffffffffffffffff1614801561071057507f000000000000000000000000000000000000000000000000000000000000000046145b1561073d577f000000000000000000000000000000000000000000000000000000000000000090506107ab565b6107a87f00000000000000000000000000000000000000000000000000000000000000007f00000000000000000000000000000000000000000000000000000000000000007f00000000000000000000000000000000000000000000000000000000000000006109fe565b90505b90565b600082826040516020016107c392919061157b565b60405160208183030381529060405280519060200120905092915050565b60008060418351036108225760008060006020860151925060408601519150606086015160001a905061081687828585610a38565b9450945050505061082b565b60006002915091505b9250929050565b60006004811115610846576108456115b2565b5b816004811115610859576108586115b2565b5b03156109fb5760016004811115610873576108726115b2565b5b816004811115610886576108856115b2565b5b036108c6576040517f08c379a00000000000000000000000000000000000000000000000000000000081526004016108bd9061162d565b60405180910390fd5b600260048111156108da576108d96115b2565b5b8160048111156108ed576108ec6115b2565b5b0361092d576040517f08c379a000000000000000000000000000000000000000000000000000000000815260040161092490611699565b60405180910390fd5b60036004811115610941576109406115b2565b5b816004811115610954576109536115b2565b5b03610994576040517f08c379a000000000000000000000000000000000000000000000000000000000815260040161098b9061172b565b60405180910390fd5b6004808111156109a7576109a66115b2565b5b8160048111156109ba576109b96115b2565b5b036109fa576040517f08c379a00000000000000000000000000000000000000000000000000000000081526004016109f1906117bd565b60405180910390fd5b5b50565b60008383834630604051602001610a199594939291906117ec565b6040516020818303038152906040528051906020012090509392505050565b6000807f7fffffffffffffffffffffffffffffff5d576e7357a4501ddfe92f46681b20a08360001c1115610a73576000600391509150610b3b565b601b8560ff1614158015610a8b5750601c8560ff1614155b15610a9d576000600491509150610b3b565b600060018787878760405160008152602001604052604051610ac2949392919061185b565b6020604051602081039080840390855afa158015610ae4573d6000803e3d6000fd5b505050602060405103519050600073ffffffffffffffffffffffffffffffffffffffff168173ffffffffffffffffffffffffffffffffffffffff1603610b3257600060019250925050610b3b565b80600092509250505b94509492505050565b600080fd5b600080fd5b600073ffffffffffffffffffffffffffffffffffffffff82169050919050565b6000610b7982610b4e565b9050919050565b610b8981610b6e565b8114610b9457600080fd5b50565b600081359050610ba681610b80565b92915050565b600080fd5b600060808284031215610bc757610bc6610bac565b5b81905092915050565b60008060408385031215610be757610be6610b44565b5b6000610bf585828601610b97565b925050602083013567ffffffffffffffff811115610c1657610c15610b49565b5b610c2285828601610bb1565b9150509250929050565b610c3581610b6e565b82525050565b6000602082019050610c506000830184610c2c565b92915050565b600080fd5b600080fd5b600080fd5b60008083601f840112610c7b57610c7a610c56565b5b8235905067ffffffffffffffff811115610c9857610c97610c5b565b5b602083019150836001820283011115610cb457610cb3610c60565b5b9250929050565b600080600060408486031215610cd457610cd3610b44565b5b600084013567ffffffffffffffff811115610cf257610cf1610b49565b5b610cfe86828701610bb1565b935050602084013567ffffffffffffffff811115610d1f57610d1e610b49565b5b610d2b86828701610c65565b92509250509250925092565b60008115159050919050565b610d4c81610d37565b82525050565b6000602082019050610d676000830184610d43565b92915050565b600060208284031215610d8357610d82610b44565b5b6000610d9184828501610b97565b91505092915050565b600082825260208201905092915050565b7f596f7520617265206e6f742074686520556e6976657273697479212121203e3a60008201527f2800000000000000000000000000000000000000000000000000000000000000602082015250565b6000610e07602183610d9a565b9150610e1282610dab565b604082019050919050565b60006020820190508181036000830152610e3681610dfa565b9050919050565b60008135610e4a81610b80565b80915050919050565b60008160001b9050919050565b600073ffffffffffffffffffffffffffffffffffffffff610e8084610e53565b9350801983169250808416831791505092915050565b6000819050919050565b6000610ebb610eb6610eb184610b4e565b610e96565b610b4e565b9050919050565b6000610ecd82610ea0565b9050919050565b6000610edf82610ec2565b9050919050565b6000819050919050565b610ef982610ed4565b610f0c610f0582610ee6565b8354610e60565b8255505050565b600080fd5b600080fd5b600080fd5b60008083356001602003843603038112610f3f57610f3e610f13565b5b80840192508235915067ffffffffffffffff821115610f6157610f60610f18565b5b602083019250600182023603831315610f7d57610f7c610f1d565b5b509250929050565b600082905092915050565b7f4e487b7100000000000000000000000000000000000000000000000000000000600052604160045260246000fd5b7f4e487b7100000000000000000000000000000000000000000000000000000000600052602260045260246000fd5b6000600282049050600182168061100657607f821691505b60208210810361101957611018610fbf565b5b50919050565b60008190508160005260206000209050919050565b60006020601f8301049050919050565b600082821b905092915050565b6000600883026110817fffffffffffffffffffffffffffffffffffffffffffffffffffffffffffffffff82611044565b61108b8683611044565b95508019841693508086168417925050509392505050565b6000819050919050565b60006110c86110c36110be846110a3565b610e96565b6110a3565b9050919050565b6000819050919050565b6110e2836110ad565b6110f66110ee826110cf565b848454611051565b825550505050565b600090565b61110b6110fe565b6111168184846110d9565b505050565b5b8181101561113a5761112f600082611103565b60018101905061111c565b5050565b601f82111561117f576111508161101f565b61115984611034565b81016020851015611168578190505b61117c61117485611034565b83018261111b565b50505b505050565b600082821c905092915050565b60006111a260001984600802611184565b1980831691505092915050565b60006111bb8383611191565b9150826002028217905092915050565b6111d58383610f85565b67ffffffffffffffff8111156111ee576111ed610f90565b5b6111f88254610fee565b61120382828561113e565b6000601f8311600181146112325760008415611220578287013590505b61122a85826111af565b865550611292565b601f1984166112408661101f565b60005b8281101561126857848901358255600182019150602085019450602081019050611243565b868310156112855784890135611281601f891682611191565b8355505b6001600288020188555050505b50505050505050565b6112a68383836111cb565b505050565b6000810160008301806112bd81610e3d565b90506112c98184610ef0565b50505060018101602083016112de8185610f22565b6112e981838661129b565b5050505060028101604083016112ff8185610f22565b61130a81838661129b565b5050505060038101606083016113208185610f22565b61132b81838661129b565b505050505050565b61133d82826112ab565b5050565b7f4f776e61626c653a206e6577206f776e657220697320746865207a65726f206160008201527f6464726573730000000000000000000000000000000000000000000000000000602082015250565b600061139d602683610d9a565b91506113a882611341565b604082019050919050565b600060208201905081810360008301526113cc81611390565b9050919050565b7f4f776e61626c653a2063616c6c6572206973206e6f7420746865206f776e6572600082015250565b6000611409602083610d9a565b9150611414826113d3565b602082019050919050565b60006020820190508181036000830152611438816113fc565b9050919050565b600081905092915050565b82818337600083830152505050565b6000611465838561143f565b935061147283858461144a565b82840190509392505050565b600061148b828486611459565b91508190509392505050565b6000819050919050565b6114aa81611497565b82525050565b600060a0820190506114c560008301886114a1565b6114d26020830187610c2c565b6114df60408301866114a1565b6114ec60608301856114a1565b6114f960808301846114a1565b9695505050505050565b600081905092915050565b7f1901000000000000000000000000000000000000000000000000000000000000600082015250565b6000611544600283611503565b915061154f8261150e565b600282019050919050565b6000819050919050565b61157561157082611497565b61155a565b82525050565b600061158682611537565b91506115928285611564565b6020820191506115a28284611564565b6020820191508190509392505050565b7f4e487b7100000000000000000000000000000000000000000000000000000000600052602160045260246000fd5b7f45434453413a20696e76616c6964207369676e61747572650000000000000000600082015250565b6000611617601883610d9a565b9150611622826115e1565b602082019050919050565b600060208201905081810360008301526116468161160a565b9050919050565b7f45434453413a20696e76616c6964207369676e6174757265206c656e67746800600082015250565b6000611683601f83610d9a565b915061168e8261164d565b602082019050919050565b600060208201905081810360008301526116b281611676565b9050919050565b7f45434453413a20696e76616c6964207369676e6174757265202773272076616c60008201527f7565000000000000000000000000000000000000000000000000000000000000602082015250565b6000611715602283610d9a565b9150611720826116b9565b604082019050919050565b6000602082019050818103600083015261174481611708565b9050919050565b7f45434453413a20696e76616c6964207369676e6174757265202776272076616c60008201527f7565000000000000000000000000000000000000000000000000000000000000602082015250565b60006117a7602283610d9a565b91506117b28261174b565b604082019050919050565b600060208201905081810360008301526117d68161179a565b9050919050565b6117e6816110a3565b82525050565b600060a08201905061180160008301886114a1565b61180e60208301876114a1565b61181b60408301866114a1565b61182860608301856117dd565b6118356080830184610c2c565b9695505050505050565b600060ff82169050919050565b6118558161183f565b82525050565b600060808201905061187060008301876114a1565b61187d602083018661184c565b61188a60408301856114a1565b61189760608301846114a1565b9594505050505056fea264697066735822122069d3dc343e0002504b6d1f8f50b82d8d119915a1d8732178dc3530882a91455664736f6c63430008100033",
    "linkReferences": {},
    "deployedLinkReferences": {}
}